:1000000000800020BD010000BD0A00007D0A000044
:100010007D0A00007D0A00007D0A00007D0A0000C4
:100020007D0A00007D0A00007D0A0000BD0A000074
:10003000BD0A00007D0A0000A52200008D230000FB
:10004000BD0A0000BD0A0000BD0A0000BD0A000094
:10005000BD0A0000BD0A0000BD0A0000BD0A000084
:10006000BD0A0000BD0A0000BD0A0000BD0A000074
:10007000BD0A0000BD0A0000BD0A0000BD0A000064
:10008000BD0A0000BD0A0000BD0A0000BD0A000054
:10009000BD0A0000BD0A0000BD0A0000BD0A000044
:1000A000BD0A0000BD0A0000BD0A0000BD0A000034
:1000B000BD0A0000BD0A0000BD0A0000BD0A000024
:1000C000BD0A0000BD0A0000BD0A0000BD0A000014
:1000D000BD0A0000BD0A0000BD0A0000BD0A000004
:1000E000BD0A0000BD0A0000BD0A0000BD0A0000F4
:1000F000BD0A000045250000BD0A0000852600005D
:10010000BD0A0000C5270000BD0A0000BD0A0000AE
:10011000BD0A0000BD0A0000BD0A0000BD0A0000C3
:10012000BD0A0000BD0A0000BD0A0000BD0A0000B3
:10013000BD0A0000BD0A0000BD0A0000BD0A0000A3
:10014000BD0A0000BD0A0000BD0A0000BD0A000093
:10015000BD0A0000BD0A0000BD0A0000BD0A000083
:10016000BD0A000055120000BD0A0000BD0A0000D3
:10017000BD0A0000BD0A0000BD0A0000BD0A000063
:10018000BD0A0000BD0A0000BD0A0000BD0A000053
:10019000BD0A0000BD0A0000BD0A0000BD0A000043
:1001A000BD0A0000BD0A0000BD0A0000BD0A000033
:1001B000BD0A0000BD0A0000BD0A0000564B4CF20B
:1001C000205210B51A804DF628121A8000BF00BFC9
:1001D00000F078FC514B4FF010621A60504A9A6060
:1001E000504ADA60504A136813F4807304D14F49BF
:1001F0000B604FF4A85313604D4B1A78110703D5C9
:100200001A7842F008021A704A4B4B492A221A7097
:100210004A4A4B4B8B4204D252F8040F43F8040B6A
:10022000F8E7484B484900228B4202D243F8042B9E
:10023000FAE74649464A002352F8230041F82300D2
:1002400001336F2BF8D1434B434A802103F8011B44
:100250009342FBD1414B3D4A1A60414B8A221A70AE
:10026000A3F5805324225A70A0221A709A7992071B
:10027000FCD59A79D406FCD43A4A937903F00C035E
:10028000082B384BF9D105221A7143225A719A79F9
:100290009006FCD5334A9179324B4906FBD5324A58
:1002A0004FF0817111600521516020221A709A79F6
:1002B00002F00C020C2AFAD12C4B2D4A1A602D4B5D
:1002C0002D4A1A6000225A60072243F8042C2B4A58
:1002D000C3F80C2D62B600F083FE144B1B68DA07DE
:1002E00005D5274800F034FC264B274A1A60274BD7
:1002F0001B785B0609D5234C234B22689A4204D114
:100300001F4800F025FC0023236002F007FE00F0E8
:10031000DFFB00F0ABFBFEE70E2005403080044021
:10032000823F04000100002B10D0034014D0034092
:1003300002D0074000E007402490FF1F203B000050
:100340002087FF1F2490FF1FB8D1FF1F0082FF1FCF
:100350000000000000E400E05FE400E008ED00E0E1
:1003600000500640004006404480044004800440A1
:10037000C010050014E000E03F190100000020203B
:10038000558B6B611CE00340A5C3945A00F00740F5
:10039000FFFFFFFFFFFFFFFFFFFFFFFFFFFFFFFF6D
:1003A000FFFFFFFFFFFFFFFFFFFFFFFFFFFFFFFF5D
:1003B000FFFFFFFFFFFFFFFFFFFFFFFFFFFFFFFF4D
:1003C000FFFFFFFFFFFFFFFFFFFFFFFFFFFFFFFF3D
:1003D000FFFFFFFFFFFFFFFFFFFFFFFFFFFFFFFF2D
:1003E000FFFFFFFFFFFFFFFFFFFFFFFFFFFFFFFF1D
:1003F000FFFFFFFFFFFFFFFFFFFFFFFFFFFFFFFF0D
:10040000FFFFFFFFFFFFFFFFFFFFFFFFDEF9FFFF23
:1004100010B5054C237833B9044B13B10448AFF33E
:1004200000800123237010BD2490FF1F00000000F6
:10043000243B0000084B10B51BB108490848AFF336
:1004400000800848036803B910BD074B002BFBD0A0
:10045000BDE81040184700BF000000002890FF1FB3
:10046000243B00002490FF1F0000000008B501217C
:100470000D2000F03DFC0121022000F039FC01219B
:10048000032000F035FC0121042000F031FC0021A4
:10049000052000F02DFC0121062000F029FC0021A0
:1004A000072000F025FC0121082000F021FC01219B
:1004B000092000F01DFC0121042000F0E7FB0121D0
:1004C000032000F0E3FB0121022000F0DFFB00210C
:1004D000082000F0DBFB0121092000F0D7FB0449D4
:1004E000062000F045FB7E21062000F03DFC08BD03
:1004F00000409C4608B500210D2000F0F9FB0021CA
:10050000022000F0F5FB0021032000F0F1FB0021A8
:10051000042000F0EDFB0021052000F0E9FB0021A4
:10052000062000F0E5FB0021072000F0E1FB0021A0
:10053000082000F0DDFB0021092000F0D9FB08BDF8
:1005400008B5FFF7D7FF08BD08B501F017FD10B1DA
:1005500001F0C4FCF9E708BD10B582B00024019495
:10056000042C0AD001F00AFD0028F9D001F0B6FCF5
:10057000C0B2A0F13003092B01D9002305E002AB82
:10058000234403F8040C0134EAE7032B08DC02AA35
:10059000D11811F8042C303A01F8042C0133F4E797
:1005A0009DF804309DF805209DF80600C3EB43112B
:1005B00003EB8101CC0002EB820202EB820293008A
:1005C000234400EB8002540023449DF807401C4460
:1005D00024B2FFF7B9FF204602B010BDF8B50746B8
:1005E0000E4614460121032000F050FB0121022099
:1005F00000F04CFB3023013BFDD1013C24B2B4F1AF
:10060000FF3F22D0052000F065FB012814BF002029
:10061000012030553957003118BF0121032000F067
:1006200035FB30252B46013BFDD10021022000F097
:100630002DFB2B46013BFDD10121022000F026FBC2
:10064000013DFDD1013C24B2D9E70121022000F097
:100650001DFB0121032000F019FBF8BD70B5144605
:100660000D4E0E4D31462846FFF7B8FF2246314663
:100670002846FFF7B3FF0023A34208DA074AD15602
:10068000054AD256914204D101331BB2F4E700204F
:1006900070BD012070BD00BF80AFFF1F4090FF1FE5
:1006A00070B506460D460021082000F0EFFA012142
:1006B000092000F0EBFA214C2346013BFDD100213B
:1006C000092000F0E3FA2346013BFDD10121092076
:1006D00000F0DCFA2346013BFDD10121082000F0A7
:1006E000D5FA013CFDD1013D2DB2B5F1FF3F1BD044
:1006F000072000F0EFFA012814BF002001207055F8
:100700000E4C2346013BFDD10021092000F0BEFA2A
:100710002346013BFDD10121092000F0B7FA013C3D
:10072000FDD1013D2DB2E0E70121092000F0AEFA34
:100730000021082000F0AAFA70BD00BF80A90300C4
:1007400010B54FF416642346013BFDD1012104206E
:1007500000F09CFA2346013BFDD10021042000F06B
:1007600095FA2346013BFDD10121042000F08EFAC9
:10077000013CFDD110BD00BF2DE9F0414FF0FF3528
:100780002E4601F0FBFB0028FBD001F0A7FBC0B216
:1007900072280ED1784C23685B680D227749204679
:1007A0009847204600F008F9FFF7CAFFFFF7CCFE94
:1007B000E7E76B280ED1FFF79DFEFFF7C5FE6E4CF5
:1007C00023685B680F226E4920469847204600F058
:1007D000F3F8D6E765280ED1FFF748FEFFF7B4FE21
:1007E000654C23685B680C22664920469847204682
:1007F00000F0E2F8C5E7632819D15F4C23685B6815
:100800001522614920469847FFF7A6FE0646236851
:100810005B681A225D49204698473146204600F021
:1008200019F9204600F0C8F8FFF78EFEA9E77828EE
:1008300019D1514C23685B681622554920469847C8
:10084000FFF78AFE054623685B681B225149204654
:1008500098472946204600F0FDF8204600F0ACF805
:10086000FFF772FE8DE76F2829D16B1C9BB2012B1D
:100870000CD8414C23685B681E22474920469847A4
:10088000204600F099F8FFF75FFE7AE729464348D3
:10089000FFF706FF384803685B680D224049984718
:1008A0000024A54207DD3D4B1957334800F0D2F82C
:1008B000013424B2F5E7304800F07EF861E769289A
:1008C0007FF45FAFB3B25A1C92B2012A0CD82A4C03
:1008D00023685B681D22334920469847204600F074
:1008E0006BF8FFF731FE4CE75B001FB20024A04617
:1008F0007B1E9C4224DC01F041FB0028F7D001F074
:10090000EDFAC1B2A1F13003DBB2012B0AD91A4CC6
:1009100023685B680A22244920469847204600F055
:100920004BF82EE7013424B2312914BF00220122F2
:100930001A4B03F80820104803681B689847D6E74D
:100940003A461A491548FFF789FE50B10A4C236808
:100950005B680622164920469847204600F02CF88E
:100960000FE7054C23685B68072212492046984729
:10097000204600F021F804E72887FF1F70380000A8
:100980008038000090380000A0380000B83800001F
:10099000D4380000EC380000083900004090FF1FF8
:1009A00028390000383900005839000080AFFF1F97
:1009B000643900006C39000000B583B0054B1B881A
:1009C000ADF8043003685B68022201A9984703B0C0
:1009D0005DF804FB74390000F0B58BB022B90368F0
:1009E0001B68C9B2984732E01646012A00D10A2690
:1009F00021B930228DF82520212419E02124374601
:100A0000B1FBF6F206FB1212D2B22546092A02D831
:100A10003032D2B201E03732D2B20DF1280E754435
:100A200005F8242CB1FBF7F111B1013CE4B2E6E783
:100A300033B1013CE4B20AAB23442D2203F8242C49
:100A400003685B68C4F1220201A9214498470BB0F6
:100A5000F0BD00BF08B5002902DA49422D2300E0AD
:100A600000230A22FFF7B8FF08BD00BF08B5FFF753
:100A700067FDFFF781FE01F0A5FBFAE708B50E4B15
:100A80001B6813F4802F01D000F0E4FB0A4B1B68B5
:100A900013F4806F01D001F055FD074B1B6813F470
:100AA000006F01D001F0EEFD034B1B6813F4805F73
:100AB000E5D001F087FEE2E73480044008B5FFF797
:100AC000DDFF00BF1022014B1A8070470020054057
:100AD000704700BF08B50B4B1B6880B16A461818F9
:100AE000A2F58052904206D302F012FA0C23036062
:100AF0004FF0FF3008BD034A1060184608BD184685
:100B000008BD00BF2087FF1F70B40024B0FBF2F3C4
:100B100002FB130326460D19092B02D83033DBB232
:100B200001E03733DBB22B70B0FBF2F008B10134D7
:100B3000ECE7013600238B5505E0CA5C085DC8541C
:100B40000A550133013C9C42F7DC084670BC7047F3
:100B5000044B00221A6004490A60044A1060102203
:100B60001A60704714D0034004D0034000D0034003
:100B70002DE9F04107460D463949284602F080F933
:100B800020B14FF0020847F6122602E04FF00108AC
:100B9000344E00240DE026FA04F001F07BFF4FF004
:100BA0005E5101F0CFFF0146284602F07DF910B9F1
:100BB0000134062CEFD926FA04F001F06BFF294628
:100BC00002F074F84FF07C5101F0B2FE02F080F9AF
:100BD000B0F5803F01D34FF6FF70FB1EDBB2012B57
:100BE0000DD8214A0023136020490B60204B186068
:100BF00004F0070343EAC8031360BDE8F081A7F1DE
:100C00001603DBB2012B0BD9092F09D00A2F07D00D
:100C1000062F05D0142F03D0152F01D0052F0DD18D
:100C2000144A0023136014490B60144B186004F03D
:100C3000070343EAC8031360BDE8F081202F01D009
:100C4000192F0BD10E4A002313600E490B600E4B77
:100C5000186004F0070343EAC8031360BDE8F0819D
:100C60004054894000512502009003400490034005
:100C70000890034000800340048003400880034044
:100C800000800B4004800B4008800B4021281ED8B8
:100C90000F4B53F8303093F8802212F0FF0F08D03A
:100CA00019B1012283F880207047012283F80021C6
:100CB0007047074B03EBC000436821B11A6842F04C
:100CC00003021A6070471A6822F002021A60704725
:100CD00078390000212806D8044B53F8303093F8B7
:100CE0000002C0B270470020704700BF7839000092
:100CF000212835D81B4B03EBC0035B68012901D0C9
:100D0000042914D1174A52F83020012082F88002B9
:100D10004FF4A2721A60042904D11A6842F020022A
:100D20001A6070471A6822F020021A6070470D4A54
:100D300052F83020002082F8800219B94FF48072F6
:100D40001A607047022903D140F203121A607047FB
:100D5000032903D14FF481721A60704700221A6090
:100D6000704700BF7839000010B528280FD16F4BAD
:100D70001B780B2B03D8C3F10C03994003E00C2B19
:100D800001D90C3B1941084601F0ACFB10BD0446EB
:100D9000664B187801238340002908DC0021204697
:100DA000FFF774FF01212046FFF7A2FF10BD0A469E
:100DB0008B4208D801212046FFF768FF0121204619
:100DC000FFF796FF10BDE31EDBB2012B06D8584B90
:100DD0001B6803FB011323FA00F210E0202C01D062
:100DE000192C06D1534B1B6803FB022323FA00F294
:100DF00005E0514B1B6803FB011323FA00F2E31ECD
:100E00001D2B00F28780DFE803F05F68553785858A
:100E1000232D858585858585858585414B0F19859C
:100E20007B85858585858571444B1A6040F24442F7
:100E300003F5973303F5FA731A6010BD404B1A603F
:100E400040F2444203F5973303F5F8731A6010BD7E
:100E50003C4B1A6040F2444203F5973303F5F673B6
:100E60001A6010BD384B1A6040F2444203F59733C4
:100E700003F5F4731A6010BD344B1A6040F244421B
:100E800003F59F3303F5F0731A6010BD304B1A6001
:100E900040F2444203F59F3303F5EE731A6010BD30
:100EA0002C4B1A6040F2444203F59F3303F5EC7378
:100EB0001A6010BD284B1A6040F2444203F59F337C
:100EC00003F5EA731A6010BD244B1A604FF4517297
:100ED00003F5803320331A6010BD214B1A604FF4A4
:100EE000517203F580331C331A6010BD1D4B1A601C
:100EF0004FF45172A3F5DB23A3F5F9631A6010BD1B
:100F0000194B1A604FF45172A3F5DB23A3F2CC7393
:100F10001A6010BD7F29D4BF002101212046FFF7B0
:100F2000B5FE01212046FFF7E3FE10BD2487FF1F19
:100F30000890034008800B40088003401080034065
:100F40001880034020800340288003403080034005
:100F500038800340408003404880034010900340A5
:100F60001890034010800B4018800B4072B60D4B58
:100F70001B680D4A12680D49096862B611F0806F4E
:100F800002D0322B00D90132C3F58C3303F23F1368
:100F90000748A0FB03131B094FF47A7000FB0230D3
:100FA000704700BF18E000E0C0CEFF1F04ED00E076
:100FB000398EE33838B50546FFF7D8FF044625B922
:100FC00038BD013D0AD004F57A74FFF7CFFF001B4E
:100FD000B0F57A7FF5D201F0F5F8F6E738BD00BF3D
:100FE00010B5274B4FF400021A604FF080721A6060
:100FF0004FF000721A604FF080621A604FF000628A
:101000001A6000201F4B186048F6FF710433196006
:1010100028231D4A13600832136008321360083217
:10102000136008321360083213600832136008320C
:1010300013600922154C226004F5805404342060AA
:10104000043421600434236008342360143C22609B
:1010500004F5FE24043420600D4801600D490B6046
:1010600008310B600C4B1A6001F0A0F91920FFF752
:10107000A1FF00F057FE40F21310FFF79BFF10BDD9
:1010800008E100E0048003400C800340008003403E
:1010900008800B400C800B4000800B40431E032B4C
:1010A00014D872B60A4951F8230068B170B4094CDB
:1010B000058834F81320466841F82360521B24F851
:1010C000132062B670BC704762B67047002070474C
:1010D0001CCFFF1FA0D1FF1F013803280BD872B609
:1010E000074B53F8203043B100205B680130002BE0
:1010F000FBD162B67047002070471846F9E700BF81
:1011000070CFFF1F30B472B62B4A13781D0706D577
:101110002A4B196A002936D0996A002941D05378A0
:101120001C0706D5254B196C00293ED0996C002967
:1011300039D09378190705D5204B196E002936D080
:10114000996E89B1D3781B0707D51C4BD3F8802043
:101150007AB3D3F8882011213AB162B6184B002235
:101160001A7030BC00F090BE0D21154C154D227840
:1011700043F8315003EBC1030830013A5860227044
:1011800062B630BC704704220D4C0F4D217843F8F5
:10119000325003EBC20308304A1E5860227062B618
:1011A000EFE70521E1E70921DFE70822ECE70C2260
:1011B000EAE71022E8E700BFB03A00000080FF1F16
:1011C00099CFFF1FC800400088004000421E032A3C
:1011D0001FD81C4B800040F0020030B403EBC0006D
:1011E00072B6194CA35C032B1CD8DFE803F0021382
:1011F0001618032501F10803436010F0080F098851
:10120000A55414BFC823882343EA0143036062B690
:1012100030BC704708300225ECE70525EAE70830C6
:101220000425E7E7094B53F8220038B1084B53F87F
:101230002200416043F8221062B6E9E743F8221029
:10124000034BF7E70080FF1FA8CFFF1F70CFFF1FE2
:1012500080CFFF1F2DE9F04FDFF81CB3DFF81CA390
:1012600087B046E0AF4F4FEA930807EBC809013E4D
:10127000D9F8042003F00803F6B2A2F1080003F045
:10128000FF04002B40F0068157F838301B0C99B250
:1012900022F8081C002B00F0F480A34D22F8064C25
:1012A00042F8044C55F82630002B00F070819F4D19
:1012B00055F82630586032F8081C9D4C45F8260039
:1012C00034F81630194424F8161000F0BDFD00283B
:1012D00000F05681974A984B19F0080F00F108006A
:1012E00018BF1346C9F8040047F8383008238BF8B4
:1012F00000309BF80040E4B261071BD58F4B1B7890
:10130000ABB18F490A7802F0FF032AB1013BDBB28F
:101310000B70002B00F0EF848A490A7802F0FF037B
:101320002AB1013BDBB20B70002B00F0F7800423E5
:101330008BF8003004F0080303F0FF02002B00F0EC
:10134000D6809AF80030DBB21E098BD19C08DFF8FA
:10135000D49159F8342009EBC401C2F38302013A55
:1013600049680C2A7ED8DFE802F081817D7D7D7D91
:101370007D7D477D7D7D07000868734D4A68734F0A
:10138000734E286081B240F281606A4B6A604FF010
:10139000010E0022814249F834303A60C9F8102029
:1013A000C9F8182086F800E05E4C00F2F480B1F530
:1013B000D06F80F07883B1F5817F00F0628300F216
:1013C0008782802900F0EC82822940F01E83A98860
:1013D00001F07F01042900F218835E485E4C890009
:1013E0000844227062700278930740F1798384F890
:1013F00000E04FF0020ED8E2544F3A6842B3574B28
:10140000534E5749188834780D784028864645F061
:10141000020828BF4FF0400E002C84F00104347005
:10142000CEEB00000CBF8824C82409EBC80680B2AC
:1014300085F0010544EA0E447260188049F838408E
:1014400072440D7018B9BEF1400F18BF00223A6007
:101450003D4B1A88B2F5A06F04D100219A785970DB
:10146000404B1A70404A012313703FE7364A1588F3
:1014700042F22100854200F0FF812E4A49F83420D3
:10148000F0E72C4A2C4B19F0080F18BF134647F809
:1014900038302BE700F0F8FC344A354952F8263052
:1014A000002B00F0B68158688C5D42F8260003F1ED
:1014B0000802C9F80420032C05D8DFE804F0120F55
:1014C000150204228A551A8819F0080F0CBF8823C8
:1014D000C82343EA024347F8383007E702228A5517
:1014E000F1E703228A55EEE705228A55EBE7E0078C
:1014F00000F11A82210600F14982A20706D51D4A91
:101500001D4913780220DBB213700870E30602D580
:10151000194B10221A7007B0BDE8F08F00F02EFEB4
:1015200005E700BF0080FF1F1CCFFF1FC8CEFF1FB5
:10153000A0D1FF1FC800400088004000A4CFFF1FBB
:101540002DCFFF1FACCFFF1F90CFFF1FC4CEFF1FBB
:101550002CCFFF1FC02007409CCFFF1FD8CEFF1FFE
:1015600098CFFF1F982007409420074070CFFF1F9F
:10157000A8CFFF1F88200740802007409020074009
:10158000AB4A47F83800137801331370AEE645F8DC
:101590002600A84D91E642F22100814200F03581FB
:1015A00000F2AF81B1F5086F00F01B82B1F5106F4A
:1015B00040F02B82226AA049A8780870120600F138
:1015C0004583D9F828209D49130600F13A83D9F8BC
:1015D00030209A49150600F12F83D9F83820974911
:1015E000140600F12483D9F840209449100600F134
:1015F0001983D9F848209149120600F10E83D9F8D1
:1016000050208E49130600F10383D9F858208B49E6
:10161000150600F1F882D9F860208849140600F117
:101620002983D9F868208549100600F11E83D9F86E
:1016300070208249120600F11383D9F878207F497F
:10164000130600F10883D9F880207C49150600F1C3
:101650001C83D9F888207949140600F11083D9F841
:1016600090207649100600F1C882D9F89820734975
:10167000120600F1BC827248724A734901907348A5
:101680006C4D734C049700230596029580461746CF
:101690000E461D460394386828B1446800F0F4FBF8
:1016A0002046002CF9D100233B60029B30681A468B
:1016B000002342F8253028B1446800F0E5FB2046BD
:1016C000002CF9D100223260019A98F800301146BE
:1016D000002241F8042B039A0191023B4FF00001D4
:1016E00022F81510032B09D8DFE813F04B01040092
:1016F0004B0104004FF0010388F800300135042D40
:1017000007F1040706F1040608F10108C3D1514CA2
:10171000514B2278464D049F059E002129701A7076
:10172000130700F14F8262784C49DFF810810A708C
:1017300010074FF00001C9F83010C9F8381000F157
:101740002B824749A2780A700021C9F85010C9F8C5
:1017500058101107DFF8E48000F1DC81E27841499C
:10176000364C0A7000211207C9F87010C9F87810B9
:1017700000F1B98133780193002183F00102C9F8A7
:101780009010C9F8981000200290804684460446C4
:1017900035490D7845F0020E09EBCE030393019B0A
:1017A000002B039B5C600CBF8824C82444EA080318
:1017B00085F0010449F83E3032700C70DFF87CE0AF
:1017C0002A4BDFF8A480002840F02681BCF1400FAE
:1017D0001BD144F0020C09EBCC03029CDFF85CE067
:1017E0005C60002A40F02E81020442F088029DF8DD
:1017F00004304EF83C20044433700D7023464028DA
:1018000003D100201A4A3B6010801A4A012313704A
:1018100028E68B5D032B00F22D8101A252F823F004
:10182000ED120000ED120000771900007D19000094
:1018300099CFFF1FC8CEFF1FA4CFFF1F0080FF1F3F
:1018400080CFFF1F1CCFFF1F70CFFF1FA8CFFF1F30
:10185000A0D1FF1FB03A0000C4200740C8200740B5
:10186000CC200740D020074098CFFF1F2CCFFF1F70
:10187000D8CEFF1F94200740928892B9B14A0D78C4
:101880004878157050708D78C8789570D070106851
:101890000D79157186284D7989795571917100F00E
:1018A000A580A949A94E0A78307882F00105002860
:1018B00042F002020D700CBF8821C82149F8321095
:1018C00009EBC20280F00100002130705160D4E5C4
:1018D00040F20232914240F08D80A98801F07F01F0
:1018E000042900F292806A88002A40F08E8098488D
:1018F000CDF804E089000844017841F0020101704C
:1019000041E742F2212081427BD1A988002940F0A1
:10191000E480904B904A9148AC781D681560CDF8F2
:1019200004E00A4604702EE78D4B8E4886491A6102
:101930004FF0020E80F800E0854F0A708A49196066
:1019400099608A4E8A4D8B4C9A610D213970FF2126
:101950003170DFF840E229702270874D874A8EF897
:1019600000109F27012406F8047C5D600470DA6093
:1019700007B0BDE8F08F00238B55B7E401238B55EA
:10198000B4E44FF0000388F80030B7E67049784BB4
:1019900080220D2008701A70A2077FF5B7ADAEE562
:1019A000774C4FF0020E22706270EA88724580F028
:1019B000A38165490D78402A944645F0020E28BF60
:1019C0004FF0400C04EB0C0309EBCE000293012313
:1019D00044604FEA0C48CCEB020001930022C8247B
:1019E000E4E6684A664C12782270DEE7664A0F2108
:1019F000117056E7B1F5A06F07D1012300220193C2
:101A0000C1E642F221329142F7D0514A0F231370BE
:101A1000544A0123137025E540287FF6DAAE44F0DE
:101A200002040EEBC401029E4E60BAB19DF8041090
:101A3000564A19703346403888F8005040334EF803
:101A40003420DFE69DF8043033700204029B0D70F1
:101A500042F0C80203444EF83C20D0E69DF8041042
:101A60001970029B404A88F80050403840334EF8C5
:101A70003420C7E619F0080F0CBF022303238B554F
:101A800034E4A98801F07F010429BED86A88002ABD
:101A9000BBD12F48CDF804E089000844017821F03B
:101AA000020101706FE63A4A5468002CADD0688894
:101AB000B5F804E003E00C325468002CA5D013887C
:101AC0008342F8D153887345F5D1000A03280CBF2F
:101AD00094F800E0B2F808E067E7CDF804E052E6D9
:101AE0004FF0020E61E700F0AFF9002800F0F1803E
:101AF00008301D4AC4F88400C4F8802000F0A4F91E
:101B0000002800F0E0800830204AC9F88C00C9F8AD
:101B100088202FE600F098F9002800F0E6800830D1
:101B2000114AC8F86400C8F8602000F08DF9002858
:101B300000F0D5800830154AC9F86C00C9F8682053
:101B40000CE600BFA8D1FF1F98CFFF1F2CCFFF1FAF
:101B5000C0200740C0CEFF1FB0D1FF1FBCCFFF1F6A
:101B60000080FF1F94200740880040008820074025
:101B70008020074098200740DCCEFF1F30CFFF1F9A
:101B80009CCFFF1FA4CFFF1F2DCFFF1FC800400019
:101B9000B43A00008C20074000F056F9002800F00D
:101BA0008C8008305D4AC8F84400C8F8402000F036
:101BB0004BF900287BD00830594AC9F84C00C9F8C5
:101BC0004820BEE500F040F900286AD00830534AAA
:101BD000C9F82400C9F8202000F036F900285AD0AE
:101BE00008304F4AC9F82C00C9F828209BE5D1F8E5
:101BF0009C00083800F048F93DE5D1F89400083819
:101C000000F042F931E5C86D083800F03DF902E511
:101C1000486D083800F038F9F7E4C86C083800F06F
:101C200033F9ECE4486C083800F02EF9E1E4C86BB5
:101C3000083800F029F9D6E4486B083800F024F998
:101C4000CBE4C86A083800F01FF9C0E4606A0838BD
:101C500000F01AF9B5E4C86F083800F015F9F2E49D
:101C6000486F083800F010F9E7E4C86E083800F053
:101C70000BF9DCE4486E083800F006F9D1E4D1F83D
:101C80008C00083800F000F9E9E4D1F88400083845
:101C900000F0FAF8DDE42A78C9F8280001322A7049
:101CA00041E52A78C9F8200001322A7094E72A78A1
:101CB000C9F8480001322A7043E52A78C8F8400084
:101CC00001322A7073E72A78C9F8880001322A7035
:101CD00050E52A78C4F8800001322A700EE72A788D
:101CE000C9F8680001322A7038E52A78C8F860001F
:101CF00001322A7019E700BEBEF1400FF44628BF3A
:101D00004FF0400C04EB0C0302930123CCEB0E00CC
:101D10004FEA0C48002201933AE500BF88004000DA
:101D2000C8004000F8B500F0BFFD294B29482A4CF7
:101D30002A4F2B4DDFF8BCC0DFF8BCE0294E002253
:101D40001A605A609A60DA601A615A619A61DA61BF
:101D50001A625A629A62DA621A635A639A63DA639F
:101D60001A645A649A64DA641A655A659A65DA657F
:101D70001A665A669A66DA661A675A679A67DA675F
:101D8000C3F880200168C3F8842041F480210160F9
:101D9000C3F307212170C3F30740134938701B0EAA
:101DA0002B70FF238CF80030104D8EF80030104857
:101DB0000B700123337084F8642070264FF4007494
:101DC000102207F82C3C2E70046081F8F820F8BD32
:101DD0000080FF1F348004409C200740B020074053
:101DE000B4200740942007401020074049E400E059
:101DF00008E100E0802007408820074008B500F097
:101E0000CBF808BD08B500F095F808BD08B500F09E
:101E100065F808BD08B500F0B1F808BD08B500F0D8
:101E20007BF908BD08B500F04DF908BD08B50846B6
:101E3000114600F0CBF808BD08B5084600F036F9A9
:101E400008BD00BF704700BF72B60D4B1A68B2FAEA
:101E500082F30B2B02D962B6002070474FF000418D
:101E6000D94022EA010206490A6062B603EBC303C5
:101E7000DA000449881800238B504360704700BF84
:101E80003887FF1FBC83FF1F08B50F4BC31A0F4ACB
:101E9000A2FB03231B090B2B14D80D4A12783AB16D
:101EA0000C4A127812F0FF0F02D0FFF72BF908BD91
:101EB0004FF0004222FA03F372B6074A11680B434F
:101EC000136062B608BD00BFBC83FF1F398EE338C4
:101ED00099CFFF1FA4CFFF1F3887FF1F10B5134BEB
:101EE0001B6853B9124B1B7813F0FF0F18D0032057
:101EF000FFF7D4F80D4B1860A8B10C4B1868438855
:101F00005A1C03441C7A03889A4206D3FFF7BCFF8D
:101F10000022064B1A60204610BD4280204610BDAC
:101F20004FF0FF3010BD4FF0FF3010BDB8CFFF1F96
:101F3000A4CFFF1F08B50F4B1B6853B90E4B1B787E
:101F400013F0FF0F0CD00320FFF7A8F8094B18601F
:101F500048B1084B1B684BB15A881344187A08BD26
:101F60004FF0FF3008BD4FF0FF3008BD4FF0FF309D
:101F700008BD00BFB8CFFF1FA4CFFF1F044B988838
:101F8000044B1B681BB11A885B88D31A184470472E
:101F9000A0D1FF1FB8CFFF1F08B50A4B1B7813F065
:101FA000FF0F0ED0084B186820B1FFF76DFF00221D
:101FB000054B1A600320FFF771F810B1FFF764FFBB
:101FC000F8E708BDA4CFFF1FB8CFFF1FF8B5044640
:101FD0000F460122304B1A700E4656E02F4B1B68FD
:101FE0005BBB00252E4B1B7813F0FF0F05D10022A1
:101FF000294B1A704FF0FF30F8BD0420FFF76CF842
:1020000007280AD80122244B1A70FFF71DFF234B23
:10201000186090B90022204B1A700135B5F50C4FAD
:1020200002D8204B1B782BB101221E4B1A704FF0A7
:10203000FF30F8BD00F0C6F8D4E70022194B1A7043
:10204000164B19684888C0F140039E4200D23346BF
:1020500001F10802024418444880F61A04E023788B
:1020600013702B46013201345D1E002BF7D14B88D3
:102070003F2B07D940230B800420FFF7A7F800224D
:10208000064B1A600522084B1A70002EA6D10022BA
:10209000014B1A703846F8BDADCFFF1FB0CFFF1F00
:1020A000A4CFFF1FB4CFFF1FACCFFF1F00B583B07D
:1020B00002AB03F8010D01211846FFF787FF03B0BB
:1020C0005DF804FB08B50122104B1A70104B1B6819
:1020D00093B9104B1B7813F0FF0F09D00420FEF7C3
:1020E000FBFF072804D8FFF7AFFE094B186018B9AB
:1020F0000020064B187008BD054B1B685888C0F1BE
:1021000040000022014B1A7008BD00BFADCFFF1F79
:10211000B0CFFF1FA4CFFF1F144B1B7813F0FF0F8E
:1021200023D010B50122124B1A70124B196851B10D
:102130000024114B1C704B880B800420FFF746F8DD
:102140000C4B1C600DE0FFF77FFE014630B1002212
:10215000094B1A700420FFF739F802E00122064B00
:102160001A700022024B1A7010BD7047A4CFFF1FD7
:10217000ADCFFF1FB0CFFF1FACCFFF1F08B50E4B79
:102180001B7813F0FF0F16D10C4B196841B14B8827
:102190000B800420FFF71AF80022084B1A6008BDD4
:1021A000FFF752FE014618B10420FFF70FF808BDF3
:1021B0000122034B1A7008BDADCFFF1FB0CFFF1F28
:1021C000ACCFFF1F234B1B78002B42D110B501224F
:1021D000204B1A70FFF7D2FE08B1FFF733FE00F074
:1021E0009FF908B100F0DCF800F03AFA08B100F00D
:1021F000D9F800F0D5FA08B100F0D6F80022154B56
:102200001A70EFF305831BBBEFF3108372B6124A0B
:10221000106810B9E3B962B610BD104A127812B155
:10222000B3B962B610BD01210C4A117042690A4966
:102230000A6012B10021916102E00021084A116098
:1022400003B962B60024447783689847034B1C7037
:1022500010BD7047BDCFFF1FD0CFFF1FD4CFFF1FD2
:10226000CCCFFF1F08B5EFF3108272B60B4B186886
:1022700080B1436909490B6013B10021996102E003
:102280000021074B196002B962B6002343778368C7
:102290009847E8E702B962B608BD00BFC0CFFF1F8C
:1022A000C4CFFF1F08B5FFF7DDFF08BD1C4B1B683F
:1022B00023B98360C3601A4B18602DE001681A6867
:1022C00091420AD283600022C260D86001681A6815
:1022D000521A1A60124B18601EE09A68A2B119686F
:1022E0000268521A02609B6819688A42F5D28360BC
:1022F000DA68C260D860C268906001681A68521AD1
:102300001A6002230375704719680268521A026046
:1023100000228260C360986002230375704700BF8B
:10232000C8CFFF1F10B5174B1C68D4B1236813B179
:10233000013B236015E0A3680BB10022DA60114A6B
:10234000136000212175206903681B6822469847A5
:1023500063681BB123602046FFF7A8FF094B1C6888
:10236000E3E7EFF3108372B6074A106800211160AB
:1023700003B962B620B18468FFF798FF2046F9E7F9
:1023800010BD00BFC8CFFF1FD8CFFF1F08B5034A3D
:10239000136801331360FFF7C5FF08BDC0CEFF1FF0
:1023A000704700BF704700BF704700BF6022434BBB
:1023B0001A70E12201331A70414B1B78082B10D19F
:1023C000012203F1804303F56C331A6013233D4966
:1023D0000B6001F5FF2101F2FC710A603A4A1360BB
:1023E0002CE00A2B0DD11922384B1A6013233549E2
:1023F0000B6001F5FF2101F2FC710A60324A1360A3
:102400001CE00C2B0DD11522304B1A6012232D49E4
:102410000B6001F5FF2101F2FC710A602A4A13608A
:102420000CE03D22294B1A60122326490B6001F56E
:10243000FF2101F2FC710A60234A1360244B1B78D0
:1024400033B10123234A136002F50022136005E033
:102450000023204A136002F5002213601E4B1B78F4
:10246000012B06D880231D4A136002F50022136059
:1024700020E0042B06D88423184A136002F50022BA
:10248000136017E0082B06D88523144A136002F561
:10249000002213600EE0102B06D886230F4A13602B
:1024A00002F50022136005E087230C4A136002F551
:1024B0000022136001220A4B1A7070470040074047
:1024C0003C87FF1F0CB003400CB00B4008B003402A
:1024D000DDCFFF1F20B003403D87FF1F24B0034026
:1024E000DCCFFF1F0A4A136843F480531360094B83
:1024F0001B781BB18022084B1A7002E0C022064BE9
:102500001A7080F30C0000B2044B1880704700BFB3
:102510002C800440DDCFFF1F21C00C4000C00C40C8
:10252000064B1B78DBB2064A1078C0B2834201D357
:10253000181A70471B1A03F14000704768D0FF1F3C
:10254000E5CFFF1F30B43C4B1B7913F0300F32D076
:1025500072B6394B9A7D02F0FF032AB9364BDA790D
:1025600040225A7462B626E062B6344A1078C0B28D
:10257000334A1578EDB2304AD279D1B2421C3F2AA3
:1025800000D90022AA4202D02E4CA1541046013B91
:1025900013F0FF03EFD1C3B2284A13702A4B1B6814
:1025A0004BB1A84201D3401B01E0401B403027281B
:1025B00001DD01221A70204BDB78DBB213F0800FB3
:1025C00025D01D4A127912F0800F20D01F4A1478AE
:1025D000E4B21F4A1278D2B2A2420DD001323F2A91
:1025E00000D90022144908791A48805CC0B2C87129
:1025F000097DC9B20729EFD9D2B215490A700E4A2E
:10260000127912F0800F02D07C210B4AD17013F0A6
:10261000400F0ED0084B1B7913F0400F09D0002259
:102620000D4B1A700D4B1B6803B11A703C22024B04
:10263000DA7030BC704700BF00A0064068D0FF1FB2
:10264000E5CFFF1F28D0FF1FE0CFFF1F70D0FF1F77
:1026500069D0FF1FE8CFFF1FE4CFFF1F6CD0FF1F23
:10266000064B1B78DBB2064A1078C0B2834201D316
:10267000181A70471B1A03F140007047E4D0FF1F7F
:1026800079D0FF1F30B43C4B1B7913F0300F32D0A0
:1026900072B6394B9A7D02F0FF032AB9364BDA79CC
:1026A00040225A7462B626E062B6344A1078C0B24C
:1026B000334A1578EDB2304AD279D1B2421C3F2A62
:1026C00000D90022AA4202D02E4CA1541046013B50
:1026D00013F0FF03EFD1C3B2284A13702A4B1B68D3
:1026E0004BB1A84201D3401B01E0401B40302728DA
:1026F00001DD01221A70204BDB78DBB213F0800F72
:1027000025D01D4A127912F0800F20D01F4A14786C
:10271000E4B21F4A1278D2B2A2420DD00132272A67
:1027200000D90022144908791A48805CC0B2C871E7
:10273000097DC9B20729EFD9D2B215490A700E4AEC
:10274000127912F0800F02D07C210B4AD17013F065
:10275000400F0ED0084B1B7913F0400F09D0002218
:102760000D4B1A700D4B1B6803B11A703C22024BC3
:10277000DA7030BC704700BF00B00640E4D0FF1FE5
:1027800079D0FF1FA4D0FF1F74D0FF1FECD0FF1F14
:10279000E5D0FF1F7CD0FF1F78D0FF1FE8D0FF1FC0
:1027A000064B1B78DBB2064A1078C0B2834201D3D5
:1027B000181A70471B1A03F14000704760D1FF1FC1
:1027C000F5D0FF1F2E4B1B7913F0200F22D02C4B7E
:1027D000DB79D9B22B4B1B7801333F2B00D9002377
:1027E000294A1278D2B2934204D0284AD154DAB29C
:1027F00024490A70264A116861B1264A1278D2B279
:10280000934201D39B1A01E09B1A4033272B01DD31
:1028100001230B701A4BDB78DBB213F0800F1CD056
:10282000174A127912F0800F17D01B4A1178C9B2DB
:10283000184A1278D2B2914203D16C21104AD17059
:102840000BE00132272A00D900221449895CC9B261
:102850000B48C171D2B20F490A7013F0400F0ED06D
:10286000074B1B7913F0400F09D000220C4B1A7054
:102870000C4B1B6803B11A702C22014BDA707047A5
:1028800000C0064060D1FF1FF5D0FF1F20D1FF1F01
:10289000F0D0FF1F61D1FF1F68D1FF1FF8D0FF1FCD
:1028A000F4D0FF1F64D1FF1F72B61A4B70221A704A
:1028B0004121194A11700F21013A117080221A70BA
:1028C000144B1B7813F0800FFAD000B585B0134B72
:1028D000186862B6124B984202D800EB8003580089
:1028E0000A2201A9FEF710F9002309E004AA1A44FC
:1028F00012F80C1C31B10B4A02EB43025180013338
:10290000092BF3D901335B00064A137005B05DF85B
:1029100004FB00BF00000240070002400800024024
:102920007F969800CC87FF1F80F0004002E000BF38
:1029300081F0004142001FBF5FEA410392EA030FAA
:102940007FEA226C7FEA236C6AD04FEA1262D2EBF4
:102950001363C1BFD218414048404140B8BF5B42F9
:10296000192B88BF704710F0004F40F4000020F092
:102970007F4018BF404211F0004F41F4000121F0A8
:102980007F4118BF494292EA030F3FD0A2F10102F2
:1029900041FA03FC10EB0C00C3F1200301FA03F130
:1029A00000F0004302D5494260EB4000B0F5000F53
:1029B00013D3B0F1807F06D340084FEA310102F112
:1029C0000102FE2A51D2B1F1004F40EBC25008BFC4
:1029D00020F0010040EA03007047490040EB00008E
:1029E00010F4000FA2F10102EDD1B0FA80FCACF1BD
:1029F000080CB2EB0C0200FA0CF0AABF00EBC250BC
:102A000052421843BCBFD0401843704792F0000FA9
:102A100081F4000106BF80F400000132013BB5E7FC
:102A20004FEA41037FEA226C18BF7FEA236C21D072
:102A300092EA030F04D092F0000F08BF08467047D7
:102A400090EA010F1CBF0020704712F07F4F04D1A5
:102A5000400028BF40F00040704712F100723CBFB8
:102A600000F50000704700F0004343F0FE4040F4E2
:102A7000000070477FEA226216BF08467FEA2363A0
:102A80000146420206BF5FEA412390EA010F40F48B
:102A9000800070474FF0000304E000BF10F00043D7
:102AA00048BF40425FEA000C08BF704743F09643BE
:102AB00001464FF000001CE050EA010208BF7047D9
:102AC0004FF000030AE000BF50EA010208BF704760
:102AD00011F0004302D5404261EB41015FEA010C75
:102AE00002BF84460146002043F0B64308BFA3F16D
:102AF0008053A3F50003BCFA8CF2083AA3EBC2534F
:102B000010DB01FA02FC634400FA02FCC2F120026D
:102B1000BCF1004F20FA02F243EB020008BF20F0A4
:102B20000100704702F1200201FA02FCC2F120020A
:102B300050EA4C0021FA02F243EB020008BF20EAFF
:102B4000DC7070474FF0FF0C1CEAD0521EBF1CEA2D
:102B5000D15392EA0C0F93EA0C0F6FD01A4480EA1B
:102B6000010C400218BF5FEA41211ED04FF0006304
:102B700043EA501043EA5111A0FB01310CF0004030
:102B8000B1F5000F3EBF490041EAD3715B0040EA56
:102B9000010062F17F02FD2A1DD8B3F1004F40EB26
:102BA000C25008BF20F00100704790F0000F0CF0F9
:102BB000004C08BF49024CEA502040EA51207F3ABD
:102BC000C2BFD2F1FF0340EAC250704740F4000098
:102BD0004FF00003013A5DDC12F1190FDCBF00F089
:102BE00000407047C2F10002410021FA02F1C2F137
:102BF000200200FA02FC5FEA310040F1000053EAD3
:102C00004C0308BF20EADC70704792F0000F00F020
:102C1000004C02BF400010F4000F013AF9D040EA26
:102C20000C0093F0000F01F0004C02BF490011F4BA
:102C3000000F013BF9D041EA0C018FE70CEAD153B8
:102C400092EA0C0F18BF93EA0C0F0AD030F0004C38
:102C500018BF31F0004CD8D180EA010000F00040EC
:102C6000704790F0000F17BF90F0004F084691F0AA
:102C7000000F91F0004F14D092EA0C0F01D14202E4
:102C80000FD193EA0C0F03D14B0218BF084608D1AD
:102C900080EA010000F0004040F0FE4040F40000F7
:102CA000704740F0FE4040F4400070474FF0FF0C8A
:102CB0001CEAD0521EBF1CEAD15392EA0C0F93EAD1
:102CC0000C0F69D0A2EB030280EA010C49024FEA23
:102CD000402037D04FF0805343EA111143EA1013DC
:102CE0000CF000408B4238BF5B0042F17D024FF494
:102CF000000C8B4224BF5B1A40EA0C00B3EB510F6F
:102D000024BFA3EB510340EA5C00B3EB910F24BF57
:102D1000A3EB910340EA9C00B3EBD10F24BFA3EBDC
:102D2000D10340EADC001B0118BF5FEA1C1CE0D1A4
:102D3000FD2A3FF650AF8B4240EBC25008BF20F057
:102D4000010070470CF0004C4CEA50207F32C2BFAB
:102D5000D2F1FF0340EAC250704740F400004FF048
:102D60000003013A37E792F0000F00F0004C02BF79
:102D7000400010F4000F013AF9D040EA0C0093F043
:102D8000000F01F0004C02BF490011F4000F013B9D
:102D9000F9D041EA0C0195E70CEAD15392EA0C0F05
:102DA00008D142027FF47DAF93EA0C0F7FF470AF3D
:102DB000084676E793EA0C0F04D14B023FF44CAF80
:102DC00008466EE730F0004C18BF31F0004CCAD115
:102DD00030F000427FF45CAF31F000437FF43CAF51
:102DE0005FE700BF4FF0FF3C06E000BF4FF0010C73
:102DF00002E000BF4FF0010C4DF804CD4FEA400255
:102E00004FEA41037FEA226C18BF7FEA236C11D09E
:102E100001B052EA530C18BF90EA010F58BFB2EB51
:102E2000030088BFC81738BF6FEAE17018BF40F0D1
:102E3000010070477FEA226C02D15FEA402C05D185
:102E40007FEA236CE4D15FEA412CE1D05DF8040B0A
:102E5000704700BF844608466146FFE70FB5FFF79D
:102E6000C9FF002848BF10F1000F0FBD4DF808ED55
:102E7000FFF7F4FF0CBF012000205DF808FB00BF46
:102E80004DF808EDFFF7EAFF34BF012000205DF8A0
:102E900008FB00BF4DF808EDFFF7E0FF94BF0120ED
:102EA00000205DF808FB00BF4DF808EDFFF7D2FFEA
:102EB00094BF012000205DF808FB00BF4DF808ED2D
:102EC000FFF7C8FF34BF012000205DF808FB00BFFA
:102ED00042000ED2B2F1FE4F0BD34FF09E03B3EB84
:102EE000126209D44FEA002343F0004323FA02F0B0
:102EF00070474FF00000704712F1610F01D142029C
:102F000002D14FF0FF3070474FF00000704700BF14
:102F1000014B1868704700BF108CFF1F70B50F4E33
:102F20000F4D761BB61018BF002405D0013455F89C
:102F3000043B9847A642F9D10A4E0B4D761B00F090
:102F4000E5FDB61018BF002406D0013455F8043B47
:102F50009847A642F9D170BD70BD00BF183B000074
:102F6000183B0000203B0000183B0000024B0146CC
:102F7000186800F003B800BF108CFF1F2DE9F04F58
:102F800001F10B05162D83B0064640F29F8035F007
:102F9000070500F1BF80A94200F2BC8000F0A6FA4C
:102FA000B5F5FC7FC0F09C826B0A00F0BA80042B60
:102FB00000F28381A80900F1390E4FEA4E03383040
:102FC000C44F07EB8303A3F108015C68A14207D15A
:102FD000ACE0002A80F2AC80E468A14200F0A68058
:102FE000636823F003035A1B0F2AF2DDB9493C69D9
:102FF00001F1080E744500F0B381636823F0030308
:103000005A1B0F2A00F39981002AC1F814E0C1F875
:1030100010E080F29E80B3F5007F80F06781DB08CE
:1030200003F1010C01229B1002FA03F34A6851F8E4
:103030003C80C4F8088001EBCC091A43A9F10803CD
:10304000E3604A6041F83C40C8F80C40831001241A
:103050009C40944200F28A80144206D120F0030082
:103060006400144200F10400FAD007EBC009CC461A
:103070008046DCF80C108C4507D173E1002A80F201
:103080008181C9688C4500F06D814B6823F0030392
:103090005A1B0F2AF2DD0C46D1F80CC054F8088FE9
:1030A0004B1945F001054D6042F00101C8F80CC014
:1030B0003046CCF808807B613B61C3F80CE0C3F874
:1030C00008E059609A5000F013FA1FE0102921D847
:1030D00000F00CFA1025062302207E4F07EB830335
:1030E000A3F108025C68944200F045816368E168DE
:1030F000A56823F00303234430465A68E96042F090
:1031000001028D605A6000F0F3F90834204603B0E4
:10311000BDE8F08F00240C232046336003B0BDE8E7
:10312000F08F80234FF0400E3F2049E770465DE767
:103130002344E1685A68A56842F00102E96030461C
:103140008D605A6000F0D4F90834204603B0BDE821
:10315000F08F234430465A6842F001025A6000F072
:10316000C7F90834204603B0BDE8F08FBC68636837
:1031700023F00308A84504D3C5EB08030F2B00F385
:103180008C80554BDFF860911A68D9F80030013314
:103190002A4404EB080A00F0608102F580520F32E5
:1031A00022F47F6222F00F0211463046019200F0B5
:1031B000A1F9B0F1FF3F8346019A00F058818245A2
:1031C00000F2FC80454B1968DA451144196000F0A3
:1031D0005381D9F80000DFF810E101301BBFCAEBC2
:1031E0000B0A5144CEF800B019601BF0070100F043
:1031F0001781C1F10800C1F58051834408315A4458
:10320000C2F30B02C2EB010949463046019300F0BC
:1032100071F9431C019B00F03F81CBEB00024A4453
:1032200042F001021968C7F808B04944BC42CBF823
:1032300004201960DFF8A49016D0B8F10F0F40F207
:10324000FD806268A8F10C0323F00703E01802F088
:1032500001024FF0050E1A430F2B6260C0F804E024
:10326000C0F808E000F21C811D4BBC681A6891424E
:1032700088BF19601B4B1A689142626888BF196049
:1032800022F003029542A2EB050301D80F2B04DCC8
:10329000304600F02DF9002438E7621943F00103AD
:1032A00045F0010565603046BA60536000F020F9D2
:1032B0000834204603B0BDE8F08F142B71D9542B8D
:1032C00000F2A480280B00F16F0E4FEA4E036E301F
:1032D00076E600BF148CFF1F74D1FF1F78D1FF1F4B
:1032E00070D1FF1F6CD1FF1F2090FF1F5A0A042AC4
:1032F0005ED9142A00F2B38002F15C0149005B320E
:1033000007EB810C57F82110DFF8DC81ACF1080CD9
:103310008C4500F088804A6822F00302934202D272
:1033200089688C45F7D1D1F80CC07A68C4F80CC014
:10333000A160CCF80840CC6088E6631942F0010730
:1033400045F00105656030464B610B61C3F80CE048
:10335000C3F808E05F609A50083400F0C9F8D5E679
:103360004A6873E608F1010818F0030F0CF1080C25
:103370007FF47FAE30E0DC68A34208BF02303FF448
:1033800035AEB3E60B440C465A68C96854F8085F7A
:1033900042F001025A603046E9608D6000F0A8F802
:1033A000B4E603F15C0E03F15B004FEA4E0307E65F
:1033B0009A0902F1390149003832A1E7BC424A4B6F
:1033C0003FF400AF9C68626822F003025AE759F8A4
:1033D0000839994540F0828010F0030F00F1FF306A
:1033E000F5D17B6823EA04037B6064009C423FF6CE
:1033F000BDAE002C3FF4BAAE1C4240467FF435AE61
:1034000064001C4200F10400FAD02EE6B3F5AA7F56
:1034100018D8E80B00F1780E4FEA4E037730CFE56D
:103420004FF48051EBE60121D8F80430921001FAF4
:1034300002F21A43C8F80420614677E70123CBF86B
:10344000043025E740F25452934220D8A80C00F1F2
:103450007D0E4FEA4E037C30B2E51032A4E6542ACA
:1034600026D81A0B02F16F0149006E3248E7BC689A
:10347000626822F0030205E7CAF30B0000287FF41C
:10348000A8AE4244BB6842F001025A60ECE6FE235B
:103490004FF07F0E7E2093E501224FF00009C1E638
:1034A00004F10801304600F0A9F8D9F80010DBE675
:1034B000B2F5AA7F05D8DA0B02F17801490077321C
:1034C0001EE740F254518A4205D89A0C02F17D0160
:1034D00049007C3214E7FE217E2211E77B6884E7F5
:1034E000E808431C5B00F8E5148CFF1F704700BF21
:1034F000704700BF38B5074C0023054608462360D7
:10350000FDF7E8FA431C00D038BD2368002BFBD040
:103510002B6038BDB4D1FF1F024B13B1024800F03D
:1035200005B870470000000039350000002301464F
:103530001A46184600F04AB938B5074D074C2C1BFF
:10354000A41005D0013C55F8043D9847002CF9D152
:10355000BDE8384000F0E4BA0000000000000000C0
:10356000F8B5234F0C460646FFF7C0FFBB685D6801
:1035700025F00305291B01F6EF7121F47F6121F08D
:103580000F01A1F58054B4F5805F07DB00213046C0
:10359000FFF7B0FFBB682B44984204D03046FFF7DA
:1035A000A7FF0020F8BD61423046FFF7A3FF0130BE
:1035B0000DD0104BBA6819682D1B45F00105304637
:1035C000091B55601960FFF793FF0120F8BD00212A
:1035D0003046FFF78FFFBA68831A0F2BDEDD064CEB
:1035E0000449246843F00103001B53600860D5E7D9
:1035F000148CFF1F78D1FF1F2090FF1F002945D09A
:103600002DE9F0410D468046FFF770FF55F8047C28
:103610006A4927F00103A5F10804E2188E68506892
:10362000B24220F0030062D0FE0750600BD455F880
:10363000087CE41B01F1080EA56875453B446FD07A
:10364000E768EF60BD6015186D68ED0742D543F07F
:1036500001026260E350B3F5007F18D2DB085A1C08
:103660004D6851F83270A76001209B1000FA03F3F7
:1036700001EBC2001D430838E0604D6041F8324064
:10368000FC604046BDE8F041FFF732BF70475A0A80
:10369000042A53D89A0902F139077F0002F138054C
:1036A00001EB870051F827204449083890424DD05B
:1036B000516821F003018B4202D292689042F7D107
:1036C000D068E060A2608460D4604046BDE8F0410C
:1036D000FFF70EBF95683A4FBD4203443FD0D06814
:1036E000E86043F0010285606260E350B3E7FF07E2
:1036F000034407D455F8082CA41A1344A068E268C0
:10370000C26090602F4A126843F0010093426060EB
:103710008C60B6D32C4B40461968FFF721FFB0E709
:1037200011184968C90744D49168D268CA60034433
:1037300043F0010091606060E350A2E7142A17D8BB
:1037400002F15C077F0002F15B05A9E7AA104B6854
:10375000012505FA02F213434B600246B1E743F03C
:1037600001024C610C61E560A5606260E35088E78E
:10377000542A06D81A0B02F16F077F0002F16E057A
:103780008EE7B2F5AA7F06D8DA0B02F178077F0040
:1037900002F1770584E740F25450824206D89A0C31
:1037A00002F17D077F0002F17C0579E7FE277E2587
:1037B00076E743F001026260E35062E7148CFF1F7A
:1037C0001C8CFF1F1C90FF1F74D1FF1F2DE9F047B9
:1037D000254C2568D5F848410646884692469946C4
:1037E000C4B360681F2817DC431C76B104EB800566
:1037F0000122C5F888A0D4F8881182401143022E16
:10380000C4F88811C5F808911ED00230636044F8EE
:1038100020800020BDE8F087144B03B34FF4C8703C
:10382000FFF7A4FB0446D0B1D5F84831002780E863
:103830008800C5F8484138460123C4F88871C4F8A7
:103840008C71002EE1D0D1E7D4F88C110A43C4F872
:103850008C21DAE705F5A674C5F84841C1E74FF0B9
:10386000FF30BDE8F08700BF083B00006D2F00006F
:103870007265736574696E672046504741000000A9
:1038800070696E7320646973656E67616765640053
:1038900070696E7320656E67616765640000000083
:1038A000696E707574206E756D62657220636F6EDF
:1038B0006669673A20000000636F6E66696775721B
:1038C0006564206E756D20696E7075747320617308
:1038D0003A2000006F7574707574206E756D6265A6
:1038E0007220636F6E6669673A200000636F6E66D0
:1038F000696775726564206E756D206F757470757B
:1039000074732061733A20006E756D206F7574704A
:10391000757473206E6F7420636F6E66696775725D
:10392000656420796574000072656164206F757448
:103930007075743A200000006E756D20696E7075A8
:103940007473206E6F7420636F6E6669677572653D
:103950006420796574000000676F696E672062619A
:10396000636B00006661696C656400007375636376
:10397000657373000D0AFFFF4008FE4340A004403A
:103980004408FE4344A004400018FE4300C0044025
:103990003000FE43309004403400FE433490044035
:1039A0001C18FE431CC004401018FE4310C0044005
:1039B0000818FE4308C004400C18FE430CC0044025
:1039C0000C10FE430CB004401010FE4310B0044035
:1039D0001810FE4318B004401C10FE431CB00440F5
:1039E0001410FE4314B004400418FE4304C0044005
:1039F0000010FE4300B004400008FE4300A0044055
:103A00000408FE4304A004400C08FE430CA004403C
:103A10000808FE4308A004401418FE4314C00440E4
:103A20001818FE4318C004400410FE4304B00440BC
:103A30000810FE4308B004401400FE4314900440F4
:103A40004C08FE434CA004400420FE4304D0044034
:103A50002410FE4324B004402010FE4320B0044054
:103A60002810FE4328B004402C10FE432CB0044024
:103A70000020FE4300D004404808FE4348A0044014
:103A80001000FE4310900440000000000000000001
:103A9000391E00002D1E0000251E00001D1E000006
:103AA000151E00000D1E0000051E0000FD1D00007B
:103AB00000151915000100004087FF1F12000000CB
:103AC000000200006C87FF1F43000000000300009D
:103AD000C887FF1F00000000010309045487FF1F6F
:103AE0000000000002030904B087FF1F000000006F
:103AF00003030904CC87FF1F000000000000000042
:103B00000000000000000000E887FF1FF8B500BFBC
:103B1000F8BC08BC9E46704719350000350400000B
:043B2000F8B500BF35
:103B2400B8D1FF1F08000000903A00000000000018
:103B3400E803000000000000FFFFFFFF0A0400008C
:103B44001201100102000040C01683047502010234
:103B54000301000018035400650065006E00730043
:103B640079006400750069006E006F00090243006B
:103B7400020100C032090400000102020100052410
:103B84000010010524010101042402060524060095
:103B9400010705820310004009040100020A000025
:103BA40000070503024000000705840240000000EE
:103BB40016035500530042002000530065007200B4
:103BC400690061006C000000040309040C03000098
:103BD40000000000000000000000000000000000E1
:103BE400000000000000000000000000D48AFF1F55
:103BF4003C8BFF1FA48BFF1F00000000000000008F
:103C040000000000000000000000000000000000B0
:103C140000000000000000000000000000000000A0
:103C24000000000000000000000000000000000090
:103C34000000000000000000000000000000000080
:103C44000000000000000000000000000000000070
:103C54000000000000000000000000000000000060
:103C64000000000000000000000000000000000050
:103C74000000000000000000000000000000000040
:103C84000000000000000000000000000000000030
:103C940001000000000000000E33CDAB34126DE6CD
:103CA400ECDE05000B000000000000000000000036
:103CB4000000000000000000000000000000000000
:103CC40000000000000000000000000000000000F0
:103CD40000000000000000000000000000000000E0
:103CE40000000000000000000000000000000000D0
:10401400E887FF1F0000000000000000148CFF1F51
:10402400148CFF1F1C8CFF1F1C8CFF1F248CFF1F74
:10403400248CFF1F2C8CFF1F2C8CFF1F348CFF1F24
:10404400348CFF1F3C8CFF1F3C8CFF1F448CFF1FD4
:10405400448CFF1F4C8CFF1F4C8CFF1F548CFF1F84
:10406400548CFF1F5C8CFF1F5C8CFF1F648CFF1F34
:10407400648CFF1F6C8CFF1F6C8CFF1F748CFF1FE4
:10408400748CFF1F7C8CFF1F7C8CFF1F848CFF1F94
:10409400848CFF1F8C8CFF1F8C8CFF1F948CFF1F44
:1040A400948CFF1F9C8CFF1F9C8CFF1FA48CFF1FF4
:1040B400A48CFF1FAC8CFF1FAC8CFF1FB48CFF1FA4
:1040C400B48CFF1FBC8CFF1FBC8CFF1FC48CFF1F54
:1040D400C48CFF1FCC8CFF1FCC8CFF1FD48CFF1F04
:1040E400D48CFF1FDC8CFF1FDC8CFF1FE48CFF1FB4
:1040F400E48CFF1FEC8CFF1FEC8CFF1FF48CFF1F64
:10410400F48CFF1FFC8CFF1FFC8CFF1F048DFF1F12
:10411400048DFF1F0C8DFF1F0C8DFF1F148DFF1FBF
:10412400148DFF1F1C8DFF1F1C8DFF1F248DFF1F6F
:10413400248DFF1F2C8DFF1F2C8DFF1F348DFF1F1F
:10414400348DFF1F3C8DFF1F3C8DFF1F448DFF1FCF
:10415400448DFF1F4C8DFF1F4C8DFF1F548DFF1F7F
:10416400548DFF1F5C8DFF1F5C8DFF1F648DFF1F2F
:10417400648DFF1F6C8DFF1F6C8DFF1F748DFF1FDF
:10418400748DFF1F7C8DFF1F7C8DFF1F848DFF1F8F
:10419400848DFF1F8C8DFF1F8C8DFF1F948DFF1F3F
:1041A400948DFF1F9C8DFF1F9C8DFF1FA48DFF1FEF
:1041B400A48DFF1FAC8DFF1FAC8DFF1FB48DFF1F9F
:1041C400B48DFF1FBC8DFF1FBC8DFF1FC48DFF1F4F
:1041D400C48DFF1FCC8DFF1FCC8DFF1FD48DFF1FFF
:1041E400D48DFF1FDC8DFF1FDC8DFF1FE48DFF1FAF
:1041F400E48DFF1FEC8DFF1FEC8DFF1FF48DFF1F5F
:10420400F48DFF1FFC8DFF1FFC8DFF1F048EFF1F0D
:10421400048EFF1F0C8EFF1F0C8EFF1F148EFF1FBA
:10422400148EFF1F1C8EFF1F1C8EFF1F248EFF1F6A
:10423400248EFF1F2C8EFF1F2C8EFF1F348EFF1F1A
:10424400348EFF1F3C8EFF1F3C8EFF1F448EFF1FCA
:10425400448EFF1F4C8EFF1F4C8EFF1F548EFF1F7A
:10426400548EFF1F5C8EFF1F5C8EFF1F648EFF1F2A
:10427400648EFF1F6C8EFF1F6C8EFF1F748EFF1FDA
:10428400748EFF1F7C8EFF1F7C8EFF1F848EFF1F8A
:10429400848EFF1F8C8EFF1F8C8EFF1F948EFF1F3A
:1042A400948EFF1F9C8EFF1F9C8EFF1FA48EFF1FEA
:1042B400A48EFF1FAC8EFF1FAC8EFF1FB48EFF1F9A
:1042C400B48EFF1FBC8EFF1FBC8EFF1FC48EFF1F4A
:1042D400C48EFF1FCC8EFF1FCC8EFF1FD48EFF1FFA
:1042E400D48EFF1FDC8EFF1FDC8EFF1FE48EFF1FAA
:1042F400E48EFF1FEC8EFF1FEC8EFF1FF48EFF1F5A
:10430400F48EFF1FFC8EFF1FFC8EFF1F048FFF1F08
:10431400048FFF1F0C8FFF1F0C8FFF1F148FFF1FB5
:10432400148FFF1F1C8FFF1F1C8FFF1F248FFF1F65
:10433400248FFF1F2C8FFF1F2C8FFF1F348FFF1F15
:10434400348FFF1F3C8FFF1F3C8FFF1F448FFF1FC5
:10435400448FFF1F4C8FFF1F4C8FFF1F548FFF1F75
:10436400548FFF1F5C8FFF1F5C8FFF1F648FFF1F25
:10437400648FFF1F6C8FFF1F6C8FFF1F748FFF1FD5
:10438400748FFF1F7C8FFF1F7C8FFF1F848FFF1F85
:10439400848FFF1F8C8FFF1F8C8FFF1F948FFF1F35
:1043A400948FFF1F9C8FFF1F9C8FFF1FA48FFF1FE5
:1043B400A48FFF1FAC8FFF1FAC8FFF1FB48FFF1F95
:1043C400B48FFF1FBC8FFF1FBC8FFF1FC48FFF1F45
:1043D400C48FFF1FCC8FFF1FCC8FFF1FD48FFF1FF5
:1043E400D48FFF1FDC8FFF1FDC8FFF1FE48FFF1FA5
:1043F400E48FFF1FEC8FFF1FEC8FFF1FF48FFF1F55
:10440400F48FFF1FFC8FFF1FFC8FFF1F0490FF1F03
:104414000490FF1F0C90FF1F0C90FF1F0000020070
:04442400FFFFFFFF98
:00000001FF
